:1000000000180020C100000021220000E5210000AE
:10001000E5210000E5210000E5210000E5210000C8
:10002000E5210000E5210000E5210000212200007B
:1000300021220000E521000079310000813100001B
:1000400021220000212200002122000021220000A4
:100050002122000021220000212200002122000094
:100060002122000021220000212200002122000084
:100070002122000021220000212200002122000074
:100080002122000021220000212200002122000064
:100090002122000021220000212200002122000054
:1000A0000926000021220000212200002122000058
:1000B0002122000021220000212200002122000034
:1000C000F8B502F0B1F80821474A484B1A60484A8F
:1000D000484B1A60484A494B1A60494B1A780A4201
:1000E00002D01A780A431A702A22464B46481A70E0
:1000F00000234649464C1A188A4203D2E558043375
:100100001560F8E70021434B434A934201D202C3F2
:10011000FBE70023414A424958589446985004331B
:10012000C02BF9D100210326FF2580248A083D4BEE
:100130009200D2180B002F003340DB009F40106864
:100140000131B84307002000984003003B4313608F
:100150002029EBD16246344B1A608A22334B1A7045
:10016000334B663A5A707C321A709E3A9979114232
:10017000FCD0102299791142FCD10C209A792C499B
:100180000240082AFAD1053A0A713D324A71203AF2
:1001900099791142FCD0402299791142FCD025492D
:1001A000254A11602021224A117014399A790A4097
:1001B0000C2AFBD1214A224B1A60224A224B1A6098
:1001C0000022224B1A60224B07321A60214A224B2E
:1001D0001A6062B602F0ECF802F02CF804F04AFF64
:1001E00001F0F8FFFEE7C046300004F03480044020
:1001F000823F0000388004400100000F3C80044032
:1002000002D0074000E0074020FDFF1F44FEFF1F13
:100210000C55000044FEFF1F9400002000F9FF1F52
:100220000000000000E400E008ED00E0005006409F
:10023000004006400000011044800440C000050555
:10024000048004407FBB000014E000E018E000E000
:1002500010E000E00000202020ED00E0FFFFFFFFA5
:10026000FFFFFFFFFFFFFFFFFFFFFFFFFFFFFFFF9E
:10027000FFFFFFFFFFFFFFFFFFFFFFFFFFFFFFFF8E
:10028000FFFFFFFFFFFFFFFFFFFFFFFFFFFFFFFF7E
:10029000FFFFFFFFFFFFFFFFFFFFFFFFFFFFFFFF6E
:1002A000FFFFFFFFFFFFFFFFFFFFFFFFFFFFFFFF5E
:1002B000FFFFFFFFFFFFFFFFFFFFFFFFFFFFFFFF4E
:1002C000FFFFFFFFFFFFFFFFFFFFFFFFFFFFFFFF3E
:1002D000FFFFFFFFFFFFFFFFFFFFFFFFFFFFFFFF2E
:1002E000FFFFFFFFFFFFFFFFFFFFFFFFFFFFFFFF1E
:1002F000FFFFFFFFFFFFFFFFFFFFFFFFFFFFFFFF0E
:10030000FFFFFFFFFFFFFFFFFFFFFFFFFFFFFFFFFD
:10031000FFFFFFFFFFFFFFFFFFFFFFFFFFFFFFFFED
:10032000FFFFFFFFFFFFFFFFFFFFFFFFFFFFFFFFDD
:10033000FFFFFFFFFFFFFFFFFFFFFFFFFFFFFFFFCD
:10034000FFFFFFFFFFFFFFFFFFFFFFFFFFFFFFFFBD
:10035000FFFFFFFFFFFFFFFFFFFFFFFFFFFFFFFFAD
:10036000FFFFFFFFFFFFFFFFFFFFFFFFFFFFFFFF9D
:10037000FFFFFFFFFFFFFFFFFFFFFFFFFFFFFFFF8D
:10038000FFFFFFFFFFFFFFFFFFFFFFFFFFFFFFFF7D
:10039000FFFFFFFFFFFFFFFFFFFFFFFFFFFFFFFF6D
:1003A000FFFFFFFFFFFFFFFFFFFFFFFFFFFFFFFF5D
:1003B000FFFFFFFFFFFFFFFFFFFFFFFFFFFFFFFF4D
:1003C000FFFFFFFFFFFFFFFFFFFFFFFFFFFFFFFF3D
:1003D000FFFFFFFFFFFFFFFFFFFFFFFFFFFFFFFF2D
:1003E000FFFFFFFFFFFFFFFFFFFFFFFFFFFFFFFF1D
:1003F000FFFFFFFFFFFFFFFFFFFFFFFFFFFFFFFF0D
:10040000FFFFFFFFFFFFFFFFFFFFFFFFDEF9FFFF23
:1004100010B5064C2378002B07D1054B002B02D0DA
:10042000044800E000BF0123237010BD44FEFF1FFD
:10043000000000000C550000084B10B5002B03D045
:100440000749084800E000BF07480368002B00D1B7
:1004500010BD064B002BFBD09847F9E700000000C9
:1004600048FEFF1F0C55000044FEFF1F0000000067
:100470000020704770470020704700207047436895
:1004800089005B69C858704743681020185E704740
:1004900010B5006903681B68984710BD10B5006966
:1004A00003681B69984710BD10B5006903689B6914
:1004B000984710BD10B5006903685B69984710BD87
:1004C00010B500690368DB68984710BD10B5C069B6
:1004D00003681B68984710BD0023437243685B693B
:1004E0001B68C36070470200407A002807D1536838
:1004F000D0685B691B68181A431E9841C0B27047E8
:100500004368586A431E9841C0B2704743685A69AD
:10051000D96910689B69834203DC0300884200DDCF
:100520000B001360704770B515002022835E040035
:10053000002B03DBAB4201D001F09AFC258470BD97
:1005400070B505000C0001F093FC0022EB68A400DC
:100550005B68E25070BD012310B55B420384C06943
:1005600001F086FC10BD0B0010B5C168180001F049
:10057000BFFC00B210BDFFFFF0B5136885B09B69EA
:10058000040010000E0015009847C3B2304F2D2B09
:1005900047D12B6828005B6998472B6828009B6926
:1005A0003F6898470100380004F093FD01230028BC
:1005B0000BD1042223683100DD6903AB1A70053AC0
:1005C0005A80039A2000A84740E06A7B03AF002AC4
:1005D0001CD0626852690192002B02D1FE239B0558
:1005E00000E01C4B2800009301F0BCFD011C0098AA
:1005F00003F058F803F06AF9019B02221860012306
:10060000A37223683A70DB69033A04E00722236887
:100610003A70DB69083A7A80039A310020009847E3
:1006200014E0C1B2386804F054FD00239842CCD1E4
:1006300023682800DF692B685B699847C1B23000E6
:1006400001F046F9310002002000B84705B0F0BDC6
:100650007CFDFF1F000080BFF0B585B00AAC00250F
:10066000645F0BAD0026AD5F0CAE0027F65F4768F8
:100670007F693F68C76002960195009400F079FA9F
:1006800005B0F0BD10B5040001F0F2FB0021E068F8
:1006900001F011F910BDFFFF0020094B1B788342C8
:1006A0000CD0084B1B78DB0708D5074B074A1B68A3
:1006B0001068181A0E238342804140427047C0469A
:1006C000470000205800002064FFFF1F900000201A
:1006D00070B5184B1B681A7A531E9A410123524277
:1006E0001343827A59434368002A01D05A6A00E0D2
:1006F0001A6A0124447200290DDD5D69D9692868F0
:100700000E1AB24205DD987B0A00204210D09A6989
:100710000EE012180CE05D6999692868461AB24229
:1007200005DD987B0A00204202D0DA6900E0821AD7
:100730002A6070BD80FDFF1F70B5040008000D0029
:1007400004F0D5FC2368020029005B68200098476C
:1007500070BD70B50500FFF7EFFF0400280001F041
:1007600087FB001970BD10B5502001F027FD28301F
:1007700003F016F910BDFFFF73B51A4E05003000E7
:100780000C0001F0B5FB300001F072FB012C13D01E
:10079000002C0CD0022C23D10021134B9A68D98154
:1007A0005068D8611180186800F052FC18E00F49B9
:1007B0002800FFF7CEFF13E00D492800FFF7BCFF2C
:1007C000FFF7D1FF04F002FC0B00032102000091AF
:1007D000280001F097FB280001F04AFB024B5C74F3
:1007E000002076BD8CFDFF1FF8FEFF1FDC510000CE
:1007F000E651000070B5FA2601210D2001F064FDDC
:1008000001210D2001F040FD104CF6002568FFF796
:1008100043FF00280BD10E4A236812785B1B002A85
:1008200002D0B342F3D902E00A4A9342EFD9FFF76C
:1008300033FF0028FBD00A22074B0021DA62074A67
:100840000D205A6101F020FD70BDC04664FFFF1FFE
:1008500047000020EE020000F8FEFF1F79070000AD
:10086000F7B5154E154D33682A680093009B144C5C
:100870009A4215D213491448FFF76BFF134F380003
:1008800000F0F3FB380000F0E3FB0122637C5340EF
:10089000FA226374336892000193019B9B182B60CA
:1008A0006168200001F062FA200001F08FF86420F6
:1008B00001F064FDF7BDC04664FFFF1FC0FEFF1FCF
:1008C000F8FEFF1FEC5100008CFDFF1FF0FEFF1F24
:1008D000F8B500250126324B324A1E725A60324A60
:1008E0005E729D721A60314B314A1E721A60314A33
:1008F0005E725A60304A314B314F5360314B324C4B
:100900001360FA239B00BB60304B167256723D7128
:100910003D737E733B603C612D482E4B2900036084
:100920002D4B06814581436000F0C5FF2B4B2C4ABF
:100930001D769A602B4A1D71DA6004221A742A4AC5
:100940005D611A6001225242DC611A84274A284BF9
:10095000284C5360284B16601D809D811D83A36029
:10096000264B22606361A3196760A681E581267426
:100970006574A561E561DD77A31CDE77E31CDD7797
:100980002300200030330C491E70A684A562E56266
:1009900000F0F6FF3100200000F0E4FFF8BDC04693
:1009A00030FFFF1F34FDFF1FA8510000B4FEFF1FE2
:1009B0001452000024FDFF1FA8FEFF1F64FDFF1F4F
:1009C00060FEFF1F045100008CFDFF1F305100002E
:1009D0009CFEFF1F005200002CFFFF1F78FEFF1F30
:1009E000C4FEFF1F50FFFF1F5C510000F0FEFF1F01
:1009F00020FDFF1FF8FEFF1FCCFEFF1F8F0E000023
:100A0000002343727047407A7047030010B5080016
:100A100011005A6814681A00A04710BD1FB50800DD
:100A20001100019201F0E0F805B000BD036873B554
:100A3000DE69136804005B6910000D009847C1B2BD
:100A4000280000F045FF290002002000B04773BDD8
:100A500030B50400D0B285B001380D0001920628EF
:100A600020D802F01BFC040615191F1F04000123E7
:100A7000A372A37A002B26D1AB680133DB7F002B56
:100A800021D1236820001B6A9847002834D11AE03E
:100A9000236801219B6A03E00121236849429B6A84
:100AA00020009847637A002B2AD0AB6802210333D9
:100AB000DB7F002B01D0802149000023EA5E280063
:100AC00000F03AFF1CE00023A37201336372236835
:100AD00020005B6A9847AB6802210333DB7F002B61
:100AE00001D0802149000023EA5E280000F024FFA5
:100AF000A86800F08FFF03E00123A3726372D1E7BF
:100B000005B030BD10B503681B68984710BD0B00D9
:100B100010B541681800896800F0CEF910BDF7B52E
:100B20001D00040009AB00229A5E0E000AAB2900EA
:100B30000027DF5FFFF7EBFF636801901A79152349
:100B40001340152B13D10E23F15E0C235943B368C8
:100B500059184B689C4204D13A00280000F060FB11
:100B600005E03B0022003100280000F08DFA0198DA
:100B7000FEBDF0B50F001D0089B00EAB069200223D
:100B80009B5E0FAA0021525E0400059210AA00216C
:100B9000525E00930292059A2B0001923900069A48
:100BA000FFF7BDFF059B0600834240DDFF69202162
:100BB000BC4207D1069B002B04D0A37A1E31002B28
:100BC00000D1043928000136FFF79CFFB3B2079328
:100BD0006B469B8B18B2059B834228DDE71B7B424B
:100BE0005F412A68FFB20097926A237A16000221B9
:100BF000069A2800B04723682900DB6A200098473E
:100C0000079B1E18B6B2059B30B283420FDD2A68DF
:100C10000097237A976A0321069A2800B8476368E9
:100C2000059A1969280000F047F9361830B209B062
:100C3000F0BDF0B589B015000EAA127804910592A6
:100C4000427A04000392002A78D1416814200A797C
:100C5000024217D0039E236820001B6898478642F3
:100C60006EDA236831B21B6A20009847059A036840
:100C70000092DF682A0000230499B84700285DD15C
:100C80000136E8E7049840680690844258D1002B6A
:100C900056D0049B9E680E20335EB76852070DD570
:100CA0000C214B430C3BF9184868059A03680092E5
:100CB000DC682A000123A047039041E0EA68887BB2
:100CC0001268D28894460122810706D4317C039AA7
:100CD000002902D001228008824361468A1A0C2131
:100CE000594312B27F1806927A6800275268117928
:100CF000142211404A1E9141AA685B1A5B009B5E58
:100D00000793079BDE19069B36B29F4218DA2368C9
:100D100020001B689847B04212DD236831001B6A2F
:100D200020009847059A03680092DE682A00002395
:100D30000499B047002801D10137E2E7012303936A
:100D4000039809B0F0BD13B504AC24780094FFF704
:100D500070FF16BDF0B589B004930EAB1B78170079
:100D60000693436800251A79142304000391457201
:100D70001A4213D0236820001B689847854279DA0D
:100D8000236829B21B6A2000984703683A005B6811
:100D900003991E000023B0470135EBE7039B9B68D6
:100DA0000E20195E0E0052070AD50C2171439B6874
:100DB0000C39591848683A0003685D68049BA847D5
:100DC0000220FB6801221B680621595E63689B7B39
:100DD000184008D1039A9268157C0200002D02D0B9
:100DE0009B0801329A43049B002B01D1012042E071
:100DF000039B00259B688A1A98680C237343C318C9
:100E00005B685B68187914230340581E8341B868F7
:100E1000F31A5B001B5E059313B20793059B5B19E6
:100E20001BB20493079B9D42E0DA236820001B68F5
:100E30009847049B9842D9DD236804991B6A2000D7
:100E4000984703683A005B6803991E000023B04787
:100E5000236804991B6A20009847069A0368009249
:100E6000DB683A001E0003990023B0470028BDD17B
:100E70000135D3E7002009B0F0BD13B5002400947C
:100E8000FFF768FF13BD0020704701207047002066
:100E90007047FFFF10B503683C225B680149984723
:100EA000002010BD2C520000014A024B1A6070470E
:100EB000870E000040FFFF1F10B503681B699847AD
:100EC00010BDFFFF3E22054B1A70113A5A70044ABA
:100ED0005A6000221A7201325A72704744FFFF1F93
:100EE000755200000648074B10B50360064B002101
:100EF000436001234181038100F0DDFC10BDC04649
:100F000050FFFF1F84FDFF1F5CFFFF1F7047002085
:100F100070477047F8B506000D0017000B001978F0
:100F20005C1C00290AD0002F02D05B1BBB4205DAF3
:100F3000336830001B6898472300F0E7601B441EAD
:100F400020B2F8BD7047FFFFF7B516001D00040082
:100F500008AB1A78036800929F6A32002B000421C4
:100F6000B847236820211A68002E06D0044B1B685E
:100F7000002D01D1597800E0197820009047F7BD85
:100F800080FDFF1F0020704770470368C900591893
:100F90000623C85E7047FFFF10B502AB1B780449FB
:100FA000002B00D10349FFF7C7FB012010BDC0464D
:100FB000895200008B52000010B502AB1B78044927
:100FC000002B00D10349FFF7B7FB012010BDC0463D
:100FD0008D5200008F520000F7B507000E0014007C
:100FE0000193002932D000230093009B3A6893427A
:100FF0002CDA7A689B009D58012C12D0002C03D06B
:10100000022C20D121001AE021002800B04700283E
:1010100001D001201BE001222B7C1100134212D1D0
:101020000DE02B7C234203D001212800B0470EE0C5
:10103000019A002A07D00222134204D0F4E72800C4
:10104000B0470128E5D0009B0133CDE70020FEBD6D
:101050000023190030B50468A34205DA45689A00F8
:10106000525901335161F7E730BD70B505000024D6
:101070002B689C4207DA6A68A30098580134036819
:10108000DB699847F4E770BDF0B500278BB0049397
:10109000036800979D6A0123160008913A00190021
:1010A0000400A84773681D7910231D40BD4249D034
:1010B000049B0697DB000993336830001B68984750
:1010C000069B834200DBA9E06B4618229B5E300042
:1010D0000793336807991B6A984700250590226893
:1010E000037A0095976A01212A002000B8470499E5
:1010F000059B22681B7A01910095D76A07992A00FF
:101100002000B847059B22681B7A0095976A012149
:101110002A002000B847059B09991A68049B059886
:101120000293E3681B685B1804215B5E08990193D6
:10113000079B0093976823002A00B847069B01335A
:101140000693B9E7236804991B6A2000984723682F
:101150002A005F6A2900049B2000B847049B05957C
:10116000DB0007930499E068FFF70FFF059B8342BC
:1011700054DA336830001B689847059B83424DDA88
:10118000336805991B6A3000984700250690029540
:10119000027A2368019200959F69049A2B000599B1
:1011A0002000B8472368059A5F6A2900049B200045
:1011B000B847069B22681B7A0095976A01212A008E
:1011C0002000B8470499069B22681B7A019100957C
:1011D000D76A05992A002000B847069B22681B7A27
:1011E0000095976A01212A002000B847069B0799BD
:1011F0001A68049B06980293E3681B685B18042135
:101200005B5E08990193059B0093976823002A0071
:10121000B847059B01331BB20593A3E70BB0F0BDA4
:10122000F0B50D0089680400C86995B0436805925F
:101230001A79052313401DD102680093D66829004E
:101240002200B047002800D1F7E0A968059BC869D3
:1012500002680293E3681E68059BDB00F31804260E
:101260009B5F01930026AB5F0093966823000122E9
:10127000B047E2E00E228B5E002B09D00C225A43CD
:1012800088688218526852681279520700D5D7E0F0
:101290005B000A930A9AA3689F180022BB5E102283
:1012A00008936B685B681E79324006929A7B022332
:1012B000134006D1097C0791002912D007935307E8
:1012C0000FD400230793069B002B0AD10599E068F1
:1012D000FFF75BFE0123012801DC6B461B7EDBB2BE
:1012E0000793730749D4237E002B12D00023EE5EB0
:1012F000E368059A1B68D2009B185988DB88300088
:10130000C918079B09B2C91A02F04CF9761A3E8037
:1013100033E0E3680B930022AB5E079A05999B18B4
:101320000B980993FFF731FE0023FE5E099B3018EE
:1013300083421ADB01363E80EDE7002B1DD0686842
:1013400003681B6898470A9AA36805999B5EC61AAA
:10135000E068FFF71AFE079BC01A86420DDAA36801
:101360000A9A9B181A88013A1A800A9AA3689B5E07
:1013700000216A5E9A42F2DBDFE7217C01230A004A
:101380001A401AD10A9EA068805F089EB04214D10C
:1013900060696E68B04210D1E668059F7668BF004C
:1013A000BE59B54209D1022631404CD102680091A4
:1013B000D66829002200B04703006868427A1343C8
:1013C000DBB20893002B03D1237C9B0700D49BE165
:1013D000E3681A68059BDB00D31804229B5E09931F
:1013E000079B002B00D03EE1079A03680092DE685D
:1013F000290013002200B047002826D1089B002BAB
:1014000000D078E1069B002B27D0089B0B93059B0F
:1014100001339B00139300230E936B4638229B5E8F
:101420000F93069B002B1CD10599E068FFF7ADFDDB
:10143000079BC01A0F9B834213DB6B68636163E1F8
:10144000013B1BB224E71300B7E7089B002B00D039
:1014500051E1069B002B00D00BE1A3680A9A9B5E2A
:10146000D4E70F9A079B9446634412930B9B6868DA
:1014700063440C9303681B6898470C9B8342DCDA37
:101480000B9B68680E9A9918036809B21B6A984703
:10149000089B0700002B09D1089A03680092DE68B8
:1014A000290013002200B047002863D00022AB5E61
:1014B0001093109A0C9B9B1A59425941CBB20D9331
:1014C0006B681193069B002B1CD148226B469B181E
:1014D000069A00269E5F02923A7A236801920D9A3C
:1014E000310000929B69059A9C460A96069B200053
:1014F0006646B04723680A9A5B6A06991E00200078
:10150000059BB047119B2000DB1B59425941CBB2D0
:101510001193119922683B7A0091966A01210D9AE4
:10152000B047AB6830331B78002B44D0069B002BB0
:1015300023D0099B109A0A930C9B934240D1744983
:101540002000FFF7F9F8099B0A930A9E1199013EC2
:1015500033B20A9322683B7A0091926A0121160005
:1015600020000D9AB0470A9B002B3ADC0C9B109A86
:10157000934252D00E9B01334EE7099A237C0A9284
:10158000042213421CD00B9E0E9B3136F6185B21B1
:101590002000F6B2FFF7B6FA2D21392E00D831001F
:1015A0002000FFF7AFFA5D212000FFF7ABFA099B9F
:1015B000DE1E33B203E0069B002BBAD1099B0A93CF
:1015C0006A464821059852180021515E3B7A0190E5
:1015D000119822680090D26A200016000D9AB04738
:1015E000B3E7059A3B6802920A9AA96801920F9A9A
:1015F000380000929E680D9A2300B0470028B5DDA0
:10160000069B002BB2D00C9B109A4249934200D00B
:1016100041492000FFF790F8A8E7E2680823D15E6F
:10162000059B01339942A5DD79680979C8070DD575
:10163000102001420AD11BB23A00A9682000FFF72E
:1016400023FDE368139A5B689D5093E75368139AF0
:101650009B58002B8ED0059B2000591C236809B293
:101660001B6A984786E7089B002B08D1069B002B36
:101670000DD02A492000FFF75FF80023C6E6069B3D
:10168000002BF6D1236805991B6A20009847002695
:10169000236800969F6A3200200001230521B84785
:1016A000012223680296019200969F69059A3100F3
:1016B00020000523B847236800969F6A0123200075
:1016C0001A000521B847236832005F6A3100059B84
:1016D0002000B847059B6868A96802680293099BC7
:1016E000023B1BB2019301235B42009396682300E7
:1016F0000122B047B1E6069B002BBAD123680599B9
:101700001B6A20009847A8E6002015B0F0BDC0462F
:101710008B5200008F520000EB51000091520000EC
:10172000F0B58B680F0099680E269E5F0C231A0097
:1017300072438A18526885B05268050012795207C0
:1017400000D5013E7343CB180393EB6808241C5F5C
:10175000013CB44200DD34002B7C1B0702D5002C79
:101760002BD0013C00230193019B9C4225DD019A73
:10177000331B9B180C22B96853438A68D318022282
:1017800002932B7C134207D0EB68019A5B689200AE
:10179000D358029A9A420DD06B4604229B5E029A5D
:1017A00028005268FFF770FCEB68019A5B680299A9
:1017B0009200D150019B0133D5E7EB6822B25A81E8
:1017C00003992800FFF72CFDEB68A6005B68023444
:1017D0009F510836EB6808215A5E94420FDA5B6825
:1017E0009B59002B08D02B6821B21B6A2800984710
:1017F0000022EB685B689A5101340436EAE7002066
:1018000005B0F0BD10B50200486803685C680123AC
:10181000A04710BD70B505000E0000242B689C4247
:1018200007DA6A68A30031009858FFF7EBFF01342C
:10183000F4E770BDF8B507000E0000243B689C4239
:1018400013DA7A68A3009D5821222B7C134207D11A
:101850002900300000F0C2FA002801D10134EDE780
:1018600031002800FFF75CFFF8E738003100FFF790
:10187000D1FF0020F8BD10B503681B6A984710BD62
:1018800010B503681B68984710BD0E22835E0C22BA
:1018900053438168CB185868704710B50400FFF7B0
:1018A000F4FF0E23E15E0C234B43A268995E0368AC
:1018B0001B6A984710BD002230B50823C45E8B0018
:1018C000A14204DA45680131EA500433F8E730BD3B
:1018D00013B583680C0030331B78002B0BD0144BEE
:1018E000186803F0F6FB002805D0072201AB313C55
:1018F0001A705C8016E00F4B1B685A680023590071
:1019000050184078A04205D18A5C01AB1A700122C0
:10191000524206E001330A2BF1D1002201AB1A70CA
:10192000013A5A8001AB58881B880004184316BD41
:101930007CFDFF1F80FDFF1FF8B505000C0040680F
:1019400011001600FFF797FF43689A89002322428F
:1019500006D003682A005F6921003300B8470300FE
:101960001800F8BD30B500230C248B4207DC2200A0
:101970005A4385680133AA1890601BB2F5E730BD61
:10198000002210B5040083685960C281C1611A80C9
:101990000068FFF75DFB2068FFF75AFB10BD10B52C
:1019A0000400FFF772FF4368A16818790E23E25E16
:1019B0000C235343400701D5002A01D1C91801E087
:1019C0000C3BC9182068FFF735FF10BD816910B5C1
:1019D000002902D1FFF7E3FF06E00022437C4274B6
:1019E00001320068FFF7F8FA10BD70B504000D0071
:1019F00001260068FFF739FBA56166742000FFF738
:101A000044FF0023467229001A002068FFF7E4FA19
:101A100070BDFFFF012337B5C269040053725268DD
:101A200015791D400E23C05E002D1ED000280CD05D
:101A30000C23013800B2E0815843A3680421181830
:101A40000023C25EFFF778FF1DE0A31CDB7F002BA5
:101A500019D0A368042100229A5EA068FFF76CFFEA
:101A600061692000FFF7C1FF0DE00C235843A36814
:101A7000042118180023C25EFFF75EFF606829008A
:101A80000368DB6998472000FFF7FFFE01234372DC
:101A90002000FFF7FAFEE06143681B79DB0602D500
:101AA0002000FFF7B7FF012201AB1A701888014B25
:101AB00018433EBD0000FFFFF0B585B00400FFF7FE
:101AC000ECFE037A002B15D02000FFF7E6FE03683A
:101AD00006001F690E23E55E0C235D43A36820000A
:101AE0005D19FFF7DAFE2A00030001213000B84734
:101AF00000280BD0002302AA1370013B538002ABD5
:101B000058881B880004184305B0F0BD2000FFF77B
:101B1000C4FE436806001B79022100930223009A49
:101B2000134001930E23E05E0C235843A36818185A
:101B30000023C25EFFF700FF071E30D1009BDB438E
:101B40009B074DD10E23E25E0C21635E9A4221DA9F
:101B50002000FFF79AFE012343722000FFF79DFE4D
:101B60000C23E58901352DB2E5815D43A3685D193C
:101B700068602F802000FFF788FE012343723368DE
:101B800020001F69FFF789FE2A00030002213000B0
:101B9000B84725E013492000FFF727FF0DE0012F8C
:101BA0001ED12000FFF779FE43681B793B4217D115
:101BB0002000FFF72FFF01370390019B002B09D076
:101BC0000121009BE66171720B4203D160680368DA
:101BD000DB69984702AB1F70012302AA5B428DE7C5
:101BE0000227EAE7950E00000A000B00F0B5121478
:101BF00087B0CDB2039101920021425E0600681EBB
:101C000002920493072800D98DE001F047FB272BAF
:101C100004198C8C33337068FFF732FE002800D132
:101C200081E0029B70685C1CFFF72AFE24B22F0043
:101C300084427CDB706843689B7BDB0775D408E0DB
:101C4000029B002B5CD173685B681B79DB0657D560
:101C500004E0FFF715FE013804B268E0B068FFF752
:101C6000D9FE02E0B068FFF727FF03140490019348
:101C7000C5B258E0019B2F00002B5BDB7068FFF7BB
:101C8000FFFD019B984255DD1C00706843681A797E
:101C90000C231A4201D00B3B09E00299FFF7EBFD40
:101CA0000123210043727068FFF7E5FD01234372B1
:101CB0008020726853689989014202D01B68310004
:101CC0009847029A20213000073DFFF735FE348007
:101CD000012D06D8B068FFF7EFFE031404900193BE
:101CE000C7B2220010213000FFF726FE40207268A4
:101CF0005368998901421DD01B683100984719E04B
:101D00007068FFF7BDFD00280DD0029B2F005C1E00
:101D100024B2002C0BDA706843689C7B01231C40C2
:101D200097D12F0003E02F0004E02F000024029B36
:101D3000A342AAD16A46928804AB1F705A800498C5
:101D400007B0F0BD10B581690400022200230068CD
:101D5000FFF742F900232000A361FFF796FD01235E
:101D600043722068FFF781F910BDFFFFF8B5836962
:101D700005000E00002B0ED00B6808005B69984729
:101D8000154BC0B21B685B685A7982421FD0DB7862
:101D900083421FD11BE00C27848C013424B2AB6931
:101DA000002B17D1336830001B699847002811D0E9
:101DB000013C24B2002C0DD00E23E95EE869794382
:101DC000AB683200591803689B699847E7E7280019
:101DD000FFF7B8FFF8BDC04680FDFF1F7FB54B6918
:101DE00004000A00002B22D0002140680368009103
:101DF000DD6821000123A847051E18D1A468A31C93
:101E0000DB7F002B1AD0E66A002E17D0FA210D4B8B
:101E100089001B6803930398A36AC01A01F052FA61
:101E200086420BD261692000FFF7DFFD06E0012545
:101E3000044AA36812680292029A9A62280004B0C7
:101E400070BDC04664FFFF1FF8B50600081E0DD028
:101E50000C0000258F18BC4207D0336821781B681E
:101E60003000984701342D18F5E72800F8BDFFFF32
:101E700037B5022504002A00054901A803F020F91E
:101E800023682A005B6801A9200098473EBDC04630
:101E900093520000F0B50D000F2185B09446134A0F
:101EA0006944ACB22F0C574301345443BBB2260CE7
:101EB0001C19A4193B0C240CDB19E3180A245B0839
:101EC0005C432D1B303501390D701D1EE9D1634671
:101ED000002B02D02D2301390B70CA4304ABD2185A
:101EE00003685B68984705B0F0BDC0463333000017
:101EF000002210B5914201DA49422D32FFF7CAFFA4
:101F000010BDFFFFF0B51C0089B00EAB1B7801902F
:101F10000293210023001000150002F087FF4B49B7
:101F2000002814D10122660076085242484B28004E
:101F3000310002F07BFF00280ED10122444B5242B7
:101F40002800310001F054FB002805D141490198D7
:101F5000FEF7F2FB040076E0E0223F4B1206280079
:101F6000210001F04FFB002801D03C49EFE7E022BF
:101F70003B4B12062800210001F030FB0028F4D171
:101F8000002200232800210001F028FB071E03D0B7
:101F9000802301271B06E418002600203149029BFC
:101FA0009E4207D0A022304B120602F071F9731C3A
:101FB000DEB2F4E702000B002800210001F02EFD44
:101FC0000290039101F050FB3A00010005000198D6
:101FD000FFF760FF0400002E35D0280002F0BEFF9E
:101FE00002000B000298039902F0CCFB2E2304AAF6
:101FF0001370321C0F2E00D90F220025D3B202938A
:1020000000221A4B02F044F90F00060001F02CFBED
:1020100004AAC0B2AB18020030325A7002F05CFF62
:102020000B0002003900300002F0ACFB029B0135CE
:10203000AB42E5D11A00019B01321B68D2B25B684A
:1020400004A901989847200009B0F0BD95520000FE
:10205000FFFFEF7F9D520000FFFFEF41995200000C
:10206000FFFFEFC10000E03F9999B93F0000244015
:1020700073B505000A4C23680093009E2B68280066
:102080009B69984700280ADA00F0DAFF2368AA68FB
:102090000193019B9B1B9342F0D30120404276BDEC
:1020A00064FFFF1F10B504002000FFF7E1FF0028C8
:1020B0000ADB2D2808D00300303B092B04D9236804
:1020C00020005B699847EFE710BDFFFFF7B50500FB
:1020D0000191FFF7E7FF002840DB0024FE262700E0
:1020E000B6050094019B984218D02D2812D02E28B6
:1020F00013D00300303B092B10D80A235C4320186F
:1021000030380400002F09D0301C154901F0CAFAFC
:10211000061C03E00123009300E001272B68280040
:102120005B6998472800FFF7A3FF0300303B092BAA
:10213000D8D92E28D6D0019B8342D3D0009B002B28
:1021400000D064422000002F05D001F0E1FB311CDB
:1021500001F0A8FA03E001F0DBFB00E00020FEBD87
:10216000CDCCCC3D10B50121FFF7B0FF10BDFFFF76
:1021700070B50C4C2668002E00D10B4E0B49300078
:1021800001F010FA0A48484308490500300001F000
:1021900023F9084B5843281801D5074BC018206075
:1021A00070BDC04660FFFF1F24D95B071DF301000F
:1021B000A7410000ECF4FFFFFFFFFF7F002110B5F7
:1021C0000400884204D0FFF7D3FF210001F000F99A
:1021D000080010BD10B5FEF70DFBFEF741FB00F047
:1021E0002FFFFAE770B580258026ED02F6000B4C34
:1021F00023682B4201D000F007FA2368334201D054
:1022000000F00EF823681B0501D500F009F82368DB
:10221000DB04ECD500F004F8E9E7C0463480044064
:1022200010B5FFF7DFFFFFFF0022014B1A60704778
:10223000008104407047F8B506000D001700002427
:102240003900300001F0C4F80B003733DBB2092944
:1022500001D83031CBB230002B55390001F032F8C3
:10226000061E01D00134EBE72B1958702B005A1BC6
:10227000944206DD1A78295D19702A550133013C14
:10228000F5E72800F8BD704710B51A2818D80C23B8
:1022900058430C4A835810181C7D027A224205D0FC
:1022A000002901D01A710BE01A7209E043681A681C
:1022B000002902D003210A4301E002218A431A6067
:1022C00010BDC046A4520000F0B51A282FD80C2229
:1022D00017004743164CE5196B682600012901D009
:1022E000042911D1504334583018257D027A20201A
:1022F0002A432275A22252001A601A68042901D1C9
:10230000024313E0824311E038592C7A027DA24344
:1023100002758022002908D0022902D10422FF324E
:1023200004E00022032901D1812252001A60F0BD8D
:10233000A452000072B60C4B1A680C4B18680C4B78
:102340001B6862B65B0104D5322393429B415B421A
:10235000C018084B9A1A084B5A43FA239B0058435B
:10236000920D10187047C04618E000E064FFFF1F90
:1023700004ED00E07FBB00005555010070B504007E
:10238000FFF7D8FF0500002C0FD0FFF7D3FF074B56
:10239000401B984206D9013C002C06D0FA239B0032
:1023A000ED18F2E700F04CFEEFE770BDE703000028
:1023B00080221F4BD20510B51A6080220020120621
:1023C0001A601C4B1C4918601C4B1D4A19602823BD
:1023D00013601C4A1C4C13601C4A13601C4A136097
:1023E0001C4A13601C4A1360092222601B4C2060A7
:1023F0001B4C21601B4C23601B4C23601B4C226038
:102400001B4C20601B4801601B490B601B490B6083
:102410001B4B1A6000F0BCFEFFF735FF1420FFF7DE
:10242000ADFF00F0E7FB8C204000FFF7A7FF10BDD9
:1024300000E100E004800340FFBF0000088003408B
:102440000C80034014800340008003401C80034044
:10245000248003402C8003403480034004900340D8
:10246000089003400C9003401490034000900340F8
:1024700004A0034008A003400CA0034014A00340A4
:1024800000A003400223F0B50A4A0B4E1478C82777
:102490002343DB00F518686008480578002D00D15B
:1024A000403F09040F43F75001235D405C40057035
:1024B0001470F0BDD0FFFF1F00F8FF1F4800002080
:1024C000431E10B50020032B0ED872B6074A9900A0
:1024D0008858002807D044685B008C500449048861
:1024E0005A5A121B5A5262B610BDC046C0FFFF1F97
:1024F00080000020431E0020032B09D872B6054A35
:102500009B009B58002B02D001305B68FAE762B653
:102510007047C04614000020F8B572B601230825A4
:102520001E001549154C5A1EA25C2A421AD05F01A2
:102530007C589A00002C05D1CB1908305860104BFC
:10254000CB5109E03243D2005758002F0AD18B18E3
:10255000083058600B4B8B500B4A1378013B1370BB
:1025600062B608E00133052BDCD162B60022064BCF
:102570001A7000F0D9FBF8BD00F8FF1F10540000DE
:1025800088004000C80040003E000020421E10B5F8
:10259000032A30D8022380001843174BC0001B18B1
:1025A00072B6164CA05C03280BD800F077FE160418
:1025B0000207052012E0083302200FE00833042050
:1025C0000CE00F48920014580E4B002C01D1115012
:1025D00001E09858416099500CE00320A0540A0093
:1025E00008325A60C822180700D4403A0988090402
:1025F0000A431A6062B610BD00F8FF1F7CFFFF1F80
:102600001400002024000020F7B5B94B1C781D00F1
:102610000423E4B21C421DD0B64B1B78002B16D00D
:10262000B54A1378DBB2002B05D0013BDBB2137047
:10263000002B00D100BEB14A1378DBB2002B06D0CC
:10264000013BDBB21370002B01D100F0D5FC04225A
:10265000A74B1A700822224000D161E2A84BA94F73
:102660001B78DBB29C08E4001D093C19002D00D04A
:10267000E7E1206862688006000F01380C2800D965
:10268000DBE100F015FE9C019C01DA01DA01DA01C0
:10269000DA01DA01DA01B701DA01DA01DA010D0053
:1026A0001168536800229848984E026001207360B8
:1026B000974B31602360974C89B22070964C3A61F9
:1026C0000193BA61A14218D8D023DB00994200D30C
:1026D000E7E081235B00994200D1C4E006D880295D
:1026E00000D1A9E0822900D1ABE0FAE08B4B9942FE
:1026F00000D1C7E0FF33FF3318E0894B994200D186
:102700005AE10ED888231B01994200D18EE0803314
:10271000994200D0E5E0B278764B04241A70802507
:1027200008E0804B994200D1D0E07F4B994200D124
:10273000DBE0D6E0E300FA582A4204D0FB185868E0
:10274000083800F0F1FA0134142CF3D100242500EC
:10275000764BE058002805D04368009300F0E4FA77
:102760000098F7E7714B1851714BE050714BE058EE
:10277000002805D04368009300F0D6FA0098F7E7E8
:102780006C4B6D4A18516D4BE0506B00D0526C4B46
:10279000E85C0238032807D800F080FD0204020438
:1027A000002200E001225A5501350434042DCFD116
:1027B00000230124634D2B70634B6449621EE318B0
:1027C0008A5C9B001A7008231A4221D000F08EFA0E
:1027D0006301002805D0FA18083050605C4AFA50AE
:1027E00003E0F8502B7801332B7000F07FFA0122C0
:1027F000A3001343002806D0DB00FA18083050600D
:10280000019AFA5004E0DB00F8502B789B182B70EB
:1028100002210023A2001143C9007B5003210A4377
:102820008A400134BB50052CC6D1A0E0314B494C45
:102830001B78237003009BE0464C022322706270D9
:1028400096E07F23B1880B40042B4AD8414C9B0073
:1028500022706270404A9B181A7802231A4200D1F3
:1028600086E0207084E07F23B2881A40042A38D89A
:102870007388002B35D10220374992005218117805
:1028800081432CE07F23B2881A40042A29D8738818
:10289000002B26D1022030499200521811780143B2
:1028A0001DE07288B1882D4B5C68002C19D0188807
:1028B000904209D15888884206D1120A032A01D1D0
:1028C000237855E01B8953E00C33EDE7B388002BE8
:1028D0004CD1234A1168234A1160B178224A117001
:1028E00045E00F221C4B1A7066E000233FE0C04613
:1028F0008020074047000020D1FFFF1F4900002033
:102900009020074000F8FF1F68FFFF1F34000020E1
:10291000C8004000480000208106000002030000BB
:10292000212000002122000021230000C0FFFF1F02
:102930006CFFFF1F140000208000002024000020F6
:102940007CFFFF1F3E00002030C801101054000023
:10295000880040003F000020C020074014540000C1
:1029600064FFFF1F900000205800002013001C008F
:10297000F5889D4200D91D002E00402D00D940262B
:1029800020003100FFF77EFDA419AD1B03D12F00FD
:10299000402E04D010E04027AF4200D92F00200085
:1029A0003900FFF76FFDE419ED1B01D1402F03D172
:1029B000774B1C60774B1D800122774B3CE0774BB7
:1029C00077491888884212D19B88002B0BD1754912
:1029D000D05CC8540133072BFAD10B68862B02D187
:1029E0000F22714B1A7000210800FFF74BFD6F4B4F
:1029F000236022E0664F3E68002E13D0654B1C8892
:102A00002500402C00D9402529003000FFF73AFD71
:102A1000641B604BA4B21C80002C01D1402D00D15E
:102A200074193C60A0225D4BD2001988914204D1F8
:102A300000225A709A785E4B1A700122564B1A7017
:102A40006AE008226068013D0838EDB2134037D0D3
:102A500000F06AF95749A8004258574B002A1CD089
:102A6000566846501100585D0831616003280BD844
:102A700000F014FC02040608032104E0022102E035
:102A8000052100E0042159550821C8230C4200D13A
:102A9000403B1288120413433DE0585D032808D8D8
:102AA00000F0FCFB3A3A0204002200E001225A55F1
:102AB00032E008221440621E944102345C552BE03F
:102AC0002168090C8AB2028000291ED03B4943804C
:102AD0004360AB005F583A4E002F01D1585001E0DF
:102AE000F158486037496D00F0506B5AD2186A525D
:102AF00000F0FCF8002802D00830606005E0324A9F
:102B0000206013780133137006E008231C4201D1C2
:102B10002E4B00E0254B236008222D4B1A7074E5E4
:102B2000012004421ED002231B49284C0B70294B64
:102B3000294E1A70294B1C605E609C60284CDC603A
:102B40000D241A619A61274B1C70FF23264C2370B9
:102B5000174C2B702270254A13709F22244B1A7039
:102B6000087013E063B2002B04DA0D221D4B1A70BB
:102B700080232B700222144204D01B490B78DBB255
:102B80000B702A7010231C4200D02B70F7BDC0467A
:102B900068FFFF1F3C000020942007403400002005
:102BA0002120000088000020D1FFFF1FC800400046
:102BB00098200740140000207CFFFF1FC0FFFF1F6C
:102BC0006CFFFF1F800000203E00002088004000B6
:102BD00080200740D0FFFF1F80FFFF1F00F8FF1F6E
:102BE000D4FFFF1FC0200740882007408C200740EB
:102BF0008420074010B500F015FB002210001B4B8D
:102C0000D100C850013259184860142AF8D18020E8
:102C10001749C0020A6802430A601A0A1549D2B26B
:102C20000A701A0C1449D2B20A70144A1B0E13709F
:102C3000FF23134A00201370124A13491370134ADA
:102C4000137001220A701249087012490A70124A60
:102C5000116899430B0070210B43136080220F4BC6
:102C600052041A6010220E4B1A7010BD00F8FF1F9C
:102C7000348004409C200740B0200740B420074027
:102C800080200740882007409420074010200740FC
:102C9000002107408420074018E400E000E100E044
:102CA0000821074010B500F0BFF810BD10B500F0C6
:102CB0008BF810BD10B500F05FF810BD10B500F036
:102CC000A3F810BD10B500F069F910BD10B500F003
:102CD0003FF910BD10B50800110000F0BFF810BD9D
:102CE00010B5080000F02AF910BDFFFF70B572B6EC
:102CF0000B4D2C68200000F099FC0B2802DD62B619
:102D000000200CE080231B06C3409C432C6062B66D
:102D100048235843034B181800230360436070BDD9
:102D20009CFDFF1FC0F9FF1F10B504000E4848218D
:102D3000201A00F0C7FA0B2814D80C4B1B78002B74
:102D400007D00B4B1B78002B03D02000FFF7E4FBD0
:102D500008E072B680231B06C340064A11680B4385
:102D6000136062B610BDC046C0F9FF1F3E000020D0
:102D7000470000209CFDFF1F70B5114D2B68002BF4
:102D80000CD0286843885A1CC3181C7A03889A42BE
:102D900012D3FFF7C9FF00232B600EE0094B1B780D
:102DA000002B02D10120404208E00320FFF788FBFE
:102DB00028600028E5D1F5E74280200070BDC046BC
:102DC000540000204700002010B50D4C2368002B54
:102DD00003D02268002A0ED103E00A4B1B78002B97
:102DE00002D10120404209E00320FFF769FB206087
:102DF0000028EED1F5E75388D318187A10BDC046E5
:102E00005400002047000020054B9888054B1A68A5
:102E1000002A03D0138852889B1AC0187047C046F6
:102E2000800000205400002010B50A4B1B78002BB6
:102E30000FD0094C2068002803D0FFF775FF00234E
:102E400023600320FFF73CFB002802D0FFF76CFF54
:102E5000F7E710BD4700002054000020314A01234D
:102E6000F0B50C00170085B0019002911370039328
:102E7000002C53D02C4D2B68002B25D12B4E2C4BE6
:102E80001B78DBB2002B01D13B7017E00420FFF769
:102E900031FB072809D86B461B7B3B70FFF726FFE9
:102EA000214B186000280FD13870013E214B002EB5
:102EB00002D01A78002A04D001221A700120404260
:102EC0002EE000F0BDF8DAE700221A4B29681A70EC
:102ED00040234A88981A2300844200D9030008003E
:102EE00008308018D2184A800022E41A934204D095
:102EF000019EB65C86540132F8E7019AD31801931B
:102F00004B883F2B06D9402304200B80FFF73EFB64
:102F100000232B600522084B1A70A9E702983C7029
:102F200005B0F0BD4A0000204C00002009750000EB
:102F300047000020500000204900002007B56B46E4
:102F4000D871073301211800FFF788FF0EBDFFFF7E
:102F5000012370B50E4C0F4D23702B68002B10D140
:102F60000D4B1B78002B02D1002020700FE00420B5
:102F7000FFF7C0FA0728F7D8FFF7B8FE2860002847
:102F8000F2D02B6858884023181A0023237070BD94
:102F90004A0000204C00002047000020F7B5124BEB
:102FA0001B78002B1FD00126104F114B3C681E7060
:102FB0000193104D002C09D000262E70638821004B
:102FC00023800420FFF7E2FA3E6009E0FFF78EFE5F
:102FD000011E04D004202C70FFF7D8FA00E02E70F8
:102FE0000023019A1370F7BD470000204C00002019
:102FF0004A0000204900002070B50E4B1C78E4B256
:10300000002C15D10C4D2968002906D04B880420CE
:103010000B80FFF7BBFA2C600AE0FFF767FE011E8A
:1030200003D00420FFF7B2FA02E00122034B1A702A
:1030300070BDC0464A0000204C000020490000201E
:10304000F8B52F4C2278002A58D02E4E3378002B1A
:1030500054D1013333701A420DD0FFF7D5FE00284A
:1030600001D000F0DDF8284B1B78002B03D00122A3
:1030700023789343237023789B0712D50025234B95
:103080001B78AB420DD9224BAA00D7583B683800B9
:103090001B699847002801D03B6998470135EDB27C
:1030A000EDE70023337023785B0727D519490B68B8
:1030B000002B23D0EFF30583002B1FD1EFF31082F9
:1030C00072B60868002803D0134C2578002D03D071
:1030D000002A13D162B611E00123237043690B600B
:1030E000002B01D09D6101E00C490B60002A00D14A
:1030F00062B600258368457798472570F8BDC046BD
:10310000A0FDFF1F59000020A3FDFF1F7C00002031
:1031100070000020680000206C0000206400002087
:10312000EFF3108072B643425841C0B27047002896
:1031300000D062B67047FFFF10B5FFF7F1FF0C4AF1
:103140001468002C10D063691360002B02D0002299
:103150009A6101E0074A1360FFF7E9FF00232000AE
:103160006377A3689847E8E7FFF7E1FF10BDC04623
:103170005C0000206000002010B5FFF7DDFF10BDEF
:10318000024A1368013313607047C04664FFFF1F93
:103190001B4B1C4A19781C4B082901D1002102E065
:1031A0000A2903D12E311160132206E00C2901D126
:1031B000283100E03C21116012221A60134B1A786A
:1031C000134B002A01D0002200E001221A60114BAB
:1031D0001A78114B012A01D880220CE0042A01D868
:1031E000842208E0082A01D8852204E0102A01D8A8
:1031F000862200E087221A600122084B1A7070476D
:10320000A1FDFF1F08B003400CB003407E0000206A
:1032100020B00340A2FDFF1F24B003407D0000202A
:103220007047FFFF30B585B072B670224121154B53
:103230001A70154A1170154A3239117080221A70AD
:103240001A7852B2002AFBDA114B186862B6114B99
:10325000984201D80A23584301AC0A222100FEF704
:10326000EAFF00230C48E15C0500002905D05A0064
:103270008218013351800A2BF5D101335B002B708A
:1032800005B030BD000002400700024006000240C9
:10329000080002407F9698002CFEFF1F02B4714682
:1032A00049084900095C49008E4402BC7047C04689
:1032B00003B47146490840004900095A49008E4448
:1032C00003BC7047002243088B4274D303098B422E
:1032D0005FD3030A8B4244D3030B8B4228D3030CE6
:1032E0008B420DD3FF22090212BA030C8B4202D388
:1032F0001212090265D0030B8B4219D300E0090AB0
:10330000C30B8B4201D3CB03C01A5241830B8B42B8
:1033100001D38B03C01A5241430B8B4201D34B03A1
:10332000C01A5241030B8B4201D30B03C01A524106
:10333000C30A8B4201D3CB02C01A5241830A8B428B
:1033400001D38B02C01A5241430A8B4201D34B0274
:10335000C01A5241030A8B4201D30B02C01A5241D8
:10336000CDD2C3098B4201D3CB01C01A524183098C
:103370008B4201D38B01C01A524143098B4201D3C6
:103380004B01C01A524103098B4201D30B01C01AF1
:103390005241C3088B4201D3CB00C01A524183086B
:1033A0008B4201D38B00C01A524143088B4201D398
:1033B0004B00C01A5241411A00D2014652411046F8
:1033C0007047FFE701B5002000F0F0F802BDC046ED
:1033D0000029F7D076E7704703460B437FD40022DD
:1033E00043088B4274D303098B425FD3030A8B4299
:1033F00044D3030B8B4228D3030C8B420DD3FF2203
:10340000090212BA030C8B4202D31212090265D0D0
:10341000030B8B4219D300E0090AC30B8B4201D383
:10342000CB03C01A5241830B8B4201D38B03C01ACA
:103430005241430B8B4201D34B03C01A5241030B41
:103440008B4201D30B03C01A5241C30A8B4201D3F2
:10345000CB02C01A5241830A8B4201D38B02C01A9D
:103460005241430A8B4201D34B02C01A5241030A14
:103470008B4201D30B02C01A5241CDD2C3098B42F9
:1034800001D3CB01C01A524183098B4201D38B0176
:10349000C01A524143098B4201D34B01C01A524119
:1034A00003098B4201D30B01C01A5241C3088B425E
:1034B00001D3CB00C01A524183088B4201D38B0049
:1034C000C01A524143088B4201D34B00C01A5241EB
:1034D000411A00D201465241104670475DE0CA0FC2
:1034E00000D04942031000D34042534000229C4682
:1034F00003098B422DD3030A8B4212D3FC2289018C
:1035000012BA030A8B420CD3890192118B4208D361
:10351000890192118B4204D389013AD0921100E0C3
:103520008909C3098B4201D3CB01C01A52418309D7
:103530008B4201D38B01C01A524143098B4201D304
:103540004B01C01A524103098B4201D30B01C01A2F
:103550005241C3088B4201D3CB00C01A52418308A9
:103560008B4201D38B00C01A5241D9D243088B42FF
:1035700001D34B00C01A5241411A00D201466346A2
:1035800052415B10104601D34042002B00D5494206
:10359000704763465B1000D3404201B5002000F045
:1035A00005F802BD0029F8D016E770477047C046FD
:1035B0008446101C62468C46191C634600E0C046D7
:1035C0001FB500F0FBFD002801D40021C8421FBD3B
:1035D00010B500F04FFD4042013010BD10B500F0B5
:1035E000EDFD002801DB002010BD012010BDC0460C
:1035F00010B500F0E3FD002801DD002010BD012022
:1036000010BDC04610B500F075FD002801DC00209B
:1036100010BD012010BDC04610B500F06BFD0028A4
:1036200001DA002010BD012010BDC0461C2101237D
:103630001B04984201D3000C10391B0A984201D395
:10364000000A08391B09984201D30009043902A273
:10365000105C40187047C0460403020201010101DA
:10366000000000000000000070B500220C4B0400B8
:103670000D00FFF7D1FF002804D12000290001F040
:10368000F5FB70BD064B00222000290001F07AF8FE
:1036900001F0ECFB80231B069C466044F1E7C0462A
:1036A0000000E041F0B557464E4645464300E0B4C1
:1036B00046028846760A1F0EC40F002F47D0FF2F00
:1036C00025D0002380259A469946F600ED042E4326
:1036D0007F3F434642465D02D20F5B006D0A1B0EE0
:1036E000904640D0FF2B39D080220020ED00D2043C
:1036F00015437F3BFB1842465746591C62408C4697
:1037000007430F2F5CD86F49BF00C9598F46002E61
:1037100045D108239A46063B9946DAE742460228F5
:103720002DD0032800D1C3E0012800D0A2E000255D
:1037300000260240D4B27602ED05760A2E43E40755
:10374000264330001CBC90469946A246F0BD002E90
:103750001AD104239A46033B9946BAE72A00511E20
:103760008A41901CC6E70120002DC3D02800FFF736
:103770005DFF431F76309D4043420020BAE701249D
:10378000FF2514400026D6E73000FFF74FFF431F08
:103790009E400023763047429A46994699E70C238B
:1037A0009A46093B994694E780260024F603FF25B4
:1037B000C1E735004846B2E7350022004846AEE78B
:1037C0002904090C0800370C3604360C2C0C7943FC
:1037D000704367437443060C64183619B14203D929
:1037E00080214902884647440004000C310409182E
:1037F0008D01681E8541890E2943350CED19AD01F7
:103800000D43290104D5012369081D4063460D437A
:1038100019007F31002925DD680704D00F202840DA
:10382000042800D00435280103D5274980330D40F2
:103830001900FE29A3DC0124AD016E0A1440CDB2AB
:1038400079E78020C003064207D0054205D128430E
:103850004602760A4446FF256DE706437602760A5D
:10386000FF2568E70124611A1B2905DD14400025A6
:10387000002660E76346CBE72E002023CE40591A8E
:103880008D406B1E9D412E43730704D00F233340A0
:10389000042B00D00436730104D501240125144003
:1038A000002648E70124B601760A1440002542E7C5
:1038B00080260124F6032E437602760A1440FF2563
:1038C00039E7C04668540000FFFFFFF74302590A7A
:1038D0004300C20F1B0E00207E2B0EDD9D2B0DDC46
:1038E000802000040143952B0BDC9620C31AD9409D
:1038F0000B005842002A00D118007047034BD01823
:10390000FBE7963B99400B00F3E7C046FFFFFF7FC4
:1039100070B5002830D0C317C5185D40C40F28000B
:10392000FFF784FE9E231B1A962B0DDC9622D21ADB
:1039300095406A02520AD8B25202C005520AE40700
:1039400002432243100070BD992B19DC9922D21A30
:103950009540124A2A40690704D00F210D40042DDA
:1039600000D00432510103D50C4B1A409F231B1A7F
:103970009201520AD8B2DFE7002400200022DBE7E0
:1039800005222E00121AB921D6402A00C91A8A40EF
:10399000551EAA4135001543DBE7C046FFFFFFFB7C
:1039A00070B5041E28D0FFF741FE9E231B1A962BEC
:1039B0000ADC9622D21A94406202520AD8B252020B
:1039C000520AC005104370BD992B18DC9922D21AF7
:1039D0009440114A2240610704D00F210C40042C6E
:1039E00000D00432510103D50B4B1A409F231B1A00
:1039F0009201520AD8B2E2E700200022DFE7052256
:103A00002500121AB921D5402200C91A8A40541E35
:103A1000A2412C001443DCE7FFFFFFFBF8B556463C
:103A20005F464D464446F0B40F00FD0FAA46090319
:103A30007C002E005F00450F490A7F0D2943C50019
:103A40001803BC46400A570F640DDB0F3843D20001
:103A50009A4500D1AAE06646A61B002E00DCFFE0D6
:103A60006346002B39D10300134300D0D9E06B0724
:103A700009D00F232B40042B05D02B1DAB42AD41A9
:103A80006D4249191D000B0200D482E0CA4B01347B
:103A90009C4200D1FEE00A005646C84BED081A4091
:103AA0005007640552020543120B640D00211203F6
:103AB0000B0D1B056405120B1A436308C04CF60777
:103AC00014401C43640064083443280021003CBCBB
:103AD00090469946A246AB46F8BDB74B9C42C6D02D
:103AE00080231B041843382E00DDEBE01F2E00DD81
:103AF0001EE120239B1B9C4603006746BB40984663
:103B000013004746F3403B436746BA40571EBA414D
:103B100013430200F240EB1A9D42B6411D008A1A7F
:103B20007642911B0B0231D54A02560A002E00D173
:103B3000B4E03000FFF77AFD0300083B1F2B00DDE7
:103B4000B5E020222900D21AD1409E400A009D40B3
:103B500032439C4200DDB1E01C1B631C1F2B00DDC7
:103B6000D5E0202114002800C91A8C40D8408D408F
:103B70000443DA40681E854111002543002476E79E
:103B80004146314300D134E2310045466B0700D055
:103B90006FE756464807ED08C9080543864B9C4227
:103BA00035D00A036405120B640D7FE76346E31A00
:103BB0009B46002B00DC8BE06746002F3CD07E4FFD
:103BC000BC4200D153E780273F0438435B46382B83
:103BD00000DCF7E00243501E82410020D2B25319AC
:103BE0004218AB4289411D00494289180B02CDD5CC
:103BF000714B01349C4200D13DE101206F4A6B08BA
:103C00000A4028401843D507054351082FE72B00E9
:103C10000B4300D1CBE180231B030B431A03120B90
:103C200044E7013E002E6DD1AE1AB5429B41091A00
:103C30005B42C91A350075E70700174300D116E744
:103C400001235B429C46E3445B46002B00D0E0E04E
:103C5000AA18AA429B4109185B4259181500C5E7EA
:103C6000002E75D1661C7605760D012E00DCF3E082
:103C7000AE1AB0464545BF410E1A7F42F61B3702C9
:103C800000D48FE0551BAA42B641411A76428E1BE2
:103C90009A464BE756460022002507E72800FFF723
:103CA000C5FC20300300083B1F2B00DC49E72A003D
:103CB0002838824000259C4200DC4DE73F49E41A49
:103CC0001140D4E60243501E8241D3B2002222E7C3
:103CD000002B00D0F3E0631C9C465B055B0D012BC1
:103CE00000DC9FE0344B9C4500D1C3E0AA180918C2
:103CF000AA42804140424118CD0752081543490865
:103D00006446B4E62C4B9C4200D0ECE6AFE61100D2
:103D10001F3CE1400C00202B00D17FE04021CB1A5A
:103D20009A4015436A1E95410021254300242DE742
:103D300033000700203BDF403B00202E70D040279F
:103D4000BE1BB0400243501E824113430022E2E6F4
:103D5000002C4FD0184CA44500D1ABE080242404A3
:103D600076422143382E00DDDFE01F2E00DD43E1E7
:103D70002027BC1BA1460C004F46BC40A0462C008F
:103D80004746F4403C434F46BD406F1EBD41F140A5
:103D90002C43151BAA429241411A5242891A644689
:103DA0009A46BFE641464546314300D0BEE600266E
:103DB00000240025F2E6C046FF070000FFFF7FFF5A
:103DC000FFFF0F801F2B59DC2027FF1ABC4607007E
:103DD00063469F405B46B9461700DF40B8464F46F2
:103DE00043461F4363469A40531E9A415B463A43FB
:103DF000D840F4E60C002C435CD0F643002E55D19D
:103E0000551BAA42A441411A6442091B9A466446C2
:103E100088E6964FBC4200D0D8E628E6002280E72C
:103E200000208FE70B002B43002C00D0C2E0002BBA
:103E300000D101E10300134300D118E6AB18AB42F7
:103E4000B6410918764271180A0200D409E1884A7D
:103E50001D00114064460AE6002C5BD10E002E4383
:103E600000D08AE00100114300D1C2E0010015003A
:103E70009A46FCE56446002100258FE620235B423C
:103E80009C46DC4463460700DF405B46BC46202B73
:103E900000D1ACE040235F46DB1B98400243501E3C
:103EA0008241634613431A00002098E66F4CA445F4
:103EB00000D057E70100150064469A46D7E5002C6C
:103EC00039D10C002C436ED0DB43002B1AD0674C49
:103ED000A44568D0382B00DDA4E01F2B00DDAEE048
:103EE00020240F00E41AA740B9462F00DF40B8464F
:103EF000A3464F46444627435C46A5406C1EA54159
:103F0000D9403D43AD1895429B4109185B42591871
:103F100064466BE60C002C4315D1010011437BD0A5
:103F2000010015009A46514CA1E50D43691E8D41D3
:103F30000021ECB22DE74D4CA44534D0802424045C
:103F40005B422143C6E7040014434ED0ED084C0702
:103F50002C438025C9082D03294208D0C6082E42CB
:103F600005D1D208410711430C009A463100620F77
:103F7000C900E50011433D4C79E50600164300D128
:103F800075E5AE1AB0464545BF410E1A7F42F61B95
:103F9000370200D4F4E5551BAA42B641411A7642D5
:103FA000891B9A4663E50100150064465FE500221F
:103FB00000257BE5002B3BD00300134315D0ED0813
:103FC0004B072B438025C9082D03294207D0C4087D
:103FD0002C4204D141070B002100D2081343C90031
:103FE0005A0F1143DD00214C41E5204C3FE50020F4
:103FF00054E700260025D1E534000F00203CE740BF
:104000003C00202E2BD04027BE1BB1400D43691E23
:104010008D4100212C43BCE6802100260903134C6E
:104020000025BBE50D43691E8D410021EDB269E716
:10403000010015000D4C1AE50100150017E51C00E4
:104040000F00203CE7403C00202B0CD04027FB1AFF
:1040500099400D43691E8D410021254352E70021FF
:10406000D4E71D0092E50021F3E7C046FF070000FA
:10407000FFFF7FFFF0B55F4656464D464446F0B41D
:104080001F035C00DB0F9A46194B0E034D00C90F4E
:104090008046360B6D0D8B4691463F0B640D9D425D
:1040A00019D0134B9C421BD00123A54206D0180007
:1040B0003CBC90469946A246AB46F0BDBE42F6D106
:1040C000C845F4D1D34510D0002DF0D130430300C2
:1040D0005A1E9341EBE7310001230143E7D1E0E7AA
:1040E0003A430123002AE2D1DEE70023DFE7C0469E
:1040F000FF070000F0B55F46444656464D46F0B413
:104100001F033C0B2C4F0E034D00A3465C0084465E
:10411000360B6D0DC90F9046640DDB0FBD422BD0E1
:10412000254FBC422ED0002D0ED1304307008146D2
:1041300078427841002C17D15F463A4314D14B4660
:104140000020002B0AD006E0002C02D15846024382
:1041500001D099421AD00123484218433CBC9046F2
:104160009946A246AB46F0BD0028F2D058425841CD
:10417000012240421043F1E737000743D0D002202C
:104180004042EBE75F461743CDD0F8E7A542E2DCBB
:1041900005DB5E45DFD808D000205E45DED2484210
:1041A0004841012340421843D8E7C445D3D80020F2
:1041B000C445F4D3D2E7C046FF070000F0B55F4620
:1041C0004D4644465646F0B41C03240BA4462F4CDF
:1041D0000F034D005E00C90F80463F0B6D0D8B46EF
:1041E0009146760DDB0FA54220D0284CA64222D066
:1041F000002D12D1384344424441002E20D0002CDF
:104200000DD05C42634101245B421C4320003CBC56
:1042100090469946A246AB46F0BD002E17D05B45AE
:1042200019D05B465C4201231C43EFE739000224AE
:104230000143EBD1D9E7614602241143E6D1D7E728
:1042400061460A43DBD100240028DFD0E9E761465C
:104250000A43E4D1E5E7B54203DD01225C421443A1
:10426000D4E7B542CDDB6745DBD809D000246745EC
:10427000CCD259464C426141012449420C43C5E726
:10428000C845CED80024C845F3D3BFE7FF070000D8
:10429000F0B55F4656464D464446F0B40D03994688
:1042A0004E002B0B87B00700924680469B46760D4A
:1042B000CC0F002E69D06D4B9E4235D05B468022DC
:1042C000DD001204430F13432B439B46C300984663
:1042D000674B00279C460023664401934A4615031A
:1042E0005000D20F53462D0B400D914600D176E081
:1042F0005E4A90426CD080225B0F120413435C4AEA
:10430000ED0094461D4353460022DB0060444946BD
:104310003618701C6140029017430F2F00D9AFE090
:104320005448BF00C759BF465B461F4300D088E0D2
:1043300000239B469846023308270193CEE749465F
:10434000022A6AD0032A00D109E2012A00D0BBE187
:1043500011400022002300259046CCB200212D03FD
:104360000A0D12052D0B1543434A1B0515401D432D
:104370006D00E4076D0825434046290007B03CBCAA
:1043800090469946A246AB46F0BD034352D05B46E9
:10439000002B00D18AE15846FFF748F903000B3B98
:1043A0001C2B00DD7BE11D22D31A3A0001005D4683
:1043B000DA4008398D4013008F402B439B46B846A6
:1043C0002E4B00279C46002360444642019385E71C
:1043D00052462A432CD100250023022297E7524659
:1043E0002A4321D0002D00D154E12800FFF71EF907
:1043F00003000B3B1C2B00DD46E11D21CB1A51466F
:104400000200D9405346083A954093400D431B4A59
:10441000944660444042002279E7012400220C4087
:10442000124B0025904699E70025002301226EE7F4
:1044300003226CE700239B4698460133042701932F
:104440004CE703230C27019348E700238025984677
:1044500000242D03054B81E75D464346019A6FE733
:104460005D4643462100019A6AE7C046FF07000007
:1044700001FCFFFFA8540000FFFF0F80F3030000C2
:104480004246120C91461A0C9446424617044A467C
:104490001B041B0C5A43604690464A464243100098
:1044A000039262461C003F0C7A437C4342440192D3
:1044B000220C9246019A5244904506D982468020A9
:1044C00040028046C24450460390100C0490484677
:1044D0002404240C1204121905922A0C2D042D0C0C
:1044E00068432C00824648467C4350438146200C5A
:1044F0008046574357444744BA4503D98020400279
:104500008046C144380C3F04B84648442404240C77
:1045100001900498A044404404905846000C814601
:1045200058460404200C8246070048465F434C4628
:104530004343604660436446834650464443380CD8
:104540008446E4186444A34203D980235B029C465A
:10455000E34448463F04230C3F0C2404E419574627
:1045600068436F4384464D46504655434243380C9A
:10457000814662444A445B44944503D9802040020A
:104580008446654403983F04834604983F0C844660
:10459000E344C3458041404282461004844601986A
:1045A000674484466744A344BC46A345A441994656
:1045B000D44464428742BF41D4458041E144A0468F
:1045C00099459B417F424042C8440743120CBA18A8
:1045D000A045A4415F423B0064422343D7184346B1
:1045E0007D19DB0D6D021D435B465A02059B1A4384
:1045F000531E9A415B46DB0D1A4343465B0213434D
:10460000EA0107D501225C0813402343EA07029E12
:1046100013436D08574AB218002A4BDD580709D0DA
:104620000F201840042805D0181D98429B415B427A
:10463000ED180300E80104D54F4A15408022D2004E
:10464000B2184E48824200DDE7E60124DB08680725
:1046500018436D02530580462D0B5B0D0C407DE623
:10466000802259461203114208D0154206D1154343
:104670002D0398462D0B4C46414B6FE65D46154386
:104680002D032D0B3E4B69E603005546283B9D400C
:104690000023BCE65046FEF7C9FF2030A8E6030021
:1046A000283B9F400023BB46984689E6FEF7BEFFA5
:1046B000203073E60124A61A382E07DD00220C40B4
:1046C00000230025904649E6029EA3E71F2E20DC2A
:1046D00020222C001800921BF04094409340044389
:1046E000581E83411C43F540630709D00F23234024
:1046F000042B05D023001C1D9C4292415242AD1850
:104700002B021FD5012400220C40012300259046D6
:1047100024E61F202C004042821AD440202E1CD0B8
:104720004022961BB5402B43581E8341072023434C
:1047300018400025002809D00F2200251A401C002F
:10474000042AD8D1230068076D022D0B0124DB0851
:10475000034398460C40002300E60025E3E780224F
:104760000124120315432D0398462D0B0C40044BD6
:10477000F4E5C046FF030000FFFFFFFEFE07000058
:10478000FF070000F0B557464E464546E0B40E0020
:104790001100F20F9246C500420F18033703740050
:1047A000400A4E0F7F0A3043CF4E17435A00640D24
:1047B000520DDB0FC900B24200D1E5E00126734083
:1047C000A61AB446534500D1AFE0002E00DC0DE13F
:1047D000002A3AD103000B4300D0E4E06B0709D074
:1047E0000F232B40042B05D02B1DAB42AD416D4256
:1047F0007F191D003B0200D488E0BB4B01349C4272
:1048000000D110E13A00B94B51461A40012350073C
:10481000ED08520264050543120B640D0B400021A4
:10482000280012030D0D120B64052D0515436208B7
:10483000AF4CDB072C401443640064081C43210088
:104840001CBC90469946A246F0BDA74B9C42C5D0E1
:1048500080231B0418436346382B00DDFDE01F2B2B
:1048600000DD30E1624620239B1A02009A40664632
:1048700090460A009940F24046464B1E9941324309
:10488000114363460200DA40691A8D429B410D00D4
:10489000BA1A5B42D71A3B0235D57A02530A9846B8
:1048A0004346002B00D1C4E04046FEF7BFFE0300A4
:1048B000083B1F2B00DDC5E020222900D21A474605
:1048C000D1409F400A009D403A439C4200DDC0E039
:1048D0001C1B631C1F2B00DDE4E0202114002800BA
:1048E000C91AD8408C408D400443DA40681E854187
:1048F00017002543002471E7424663461A4300D15E
:104900004CE2674645466B0700D069E701235146F4
:104910007807ED08FA080B40054373498C4238D0FC
:1049200012036405120B640D79E7002E00DC9AE097
:10493000002A47D06C4A944200D14FE780221204EB
:1049400010436246382A00DC08E10143481E8141D9
:104950000022C9B24919D219A942BF410D007F42B4
:10496000BF183A0200D442E15F4A0134944200D1B8
:104970004EE101205D4A69083A4028400843D507C6
:10498000054357089A4629E706000E4300D017E76B
:1049900014E72900114300D1F9E1802109030A43FA
:1049A0001203120B3BE701235B429846C444634663
:1049B000002B72D1691A8D429B413F1A5B42FF1A4C
:1049C0000D0068E702000A4300D107E701225242C6
:1049D0009046C4446246002A00D0E6E06918A94225
:1049E000B6413F187642F7190D00BAE7002E00D005
:1049F00080E0621C5205520D012A00DCF9E06A1ABF
:104A000091464D45B6413A1A7642921B90461202A3
:104A100000D499E04D1BA9428941C71B49427A1A2B
:104A200090469A463CE75246012300251340002257
:104A3000F5E62800FEF7FAFD20300300083B1F2BA7
:104A400000DC39E72A002838824000259C4200DC3F
:104A50003EE7264FE41A1740C0E60143481E814155
:104A60000022C9B210E7002E00D0F1E0621C94468B
:104A70005205520D012A00DCA0E01B4A944500D1EA
:104A8000C5E06918A94292413F185242D21949081B
:104A9000D5070D4357086446A0E6134B9C4200D04F
:104AA000D9E69BE611001F3CE1400C00202B00D111
:104AB00080E04021CB1A9A4015436A1E9541002799
:104AC000254300241FE763460200203BDA4063468B
:104AD000202B71D0402366469B1B98400143481E03
:104AE000814111430022CFE6FF070000FFFF7FFF57
:104AF000FFFF0F80002C48D0CA4CA24200D1A2E098
:104B00007442A1468024240427434C46382C00DDFF
:104B1000DBE01F2C00DD44E14E462024A41B3E00B8
:104B2000A640A246B0464C462E00E640B446464655
:104B3000644626435446A5406C1EA54134002C43D0
:104B40004D46EF400D1B28E04A4643464D461A436A
:104B500000D0A5E6002300240025DEE61F2A5ADC4B
:104B600066462022921B060096409146B046624659
:104B70000E00D640424616434A4691404A1E914195
:104B8000020060463143C240E4E63C002C435AD068
:104B9000F443A146002C52D14D1BA9428941C71BA9
:104BA00049427F1A14009A4675E69E4A944200D004
:104BB000C7E613E600227FE700208FE7002C00D035
:104BC000C8E03B002B4300D10FE103000B4300D1B1
:104BD00004E66918A9429B413F185B42DF193B027A
:104BE00000D41AE1904B0D001F406446F6E59A464A
:104BF00089E63A002A43002C5CD1002A75D10200D4
:104C00000A4300D1CAE007000D009A46E6E5644673
:104C10000022002581E662460600203AD640624620
:104C2000B046202A00D1B7E040226646921B904051
:104C300001434246481E8141114300228AE6794CD5
:104C4000A24200D061E707000D0014009A46C5E5B6
:104C5000002C41D13C002C4378D0F443A146002CD9
:104C600020D0704CA24271D04C46382C00DDB2E00E
:104C70001F2C00DDBCE02026341BA2463C0056461B
:104C8000B4404E46A0462C00F440A4464446664636
:104C90003443A4465446A54064466E1EB5412543A0
:104CA0004C46E7406D188D4289413F184942CF1963
:104CB000140056E6002A2FD102000A4300D184E0F6
:104CC00007000D009A46574C88E53D436F1EBD41D5
:104CD000ECB200270D1B60E7524CA24236D0744262
:104CE00080263604A1463743BEE702000A4300D1BE
:104CF00074E56A1A90464545B6413A1A7642921BC7
:104D00009446120200D4F7E54D1BA9428941C71B06
:104D100049427F1A9A4661E502000A433AD0ED08FB
:104D20007C072C438025FA082D032A4208D0C708A7
:104D30002F4205D145072C003A009A46C9080C437A
:104D4000670FD200E5001743364C47E507000D001A
:104D5000140043E53A002A4343D002000A4319D025
:104D6000ED087C072C438025FA082D032A4207D042
:104D7000C6082E4204D147073C003200C9080C4344
:104D8000D700620FE50017439A46264C26E500221D
:104D9000002544E5234C21E5002049E700230025B8
:104DA000BBE54C463E00203CE6404C46B446202C39
:104DB00031D040244E46A61BB7403D436C1EA54152
:104DC00064462C4300270D1BE7E6802200231203D4
:104DD000144C0025A1E53D436F1EBD410027EDB2F7
:104DE00060E707000D000F4CF8E407000D00F5E444
:104DF0004E463C00203EF440A0464C46202C0ED0AF
:104E000040244E46A41BA7403D436F1EBD4144466F
:104E10000027254346E70027CFE70D0073E500276D
:104E2000F2E7C046FF070000FFFF7FFF70B50E4EA0
:104E30000C031D0349005B00240B490D2D0B5B0D7A
:104E4000B14204D0084900208B4208D070BD044311
:104E50000120002CFAD1044900208B42F6D11543E1
:104E60002800451EA841F1E7FF0700000B0330B5FD
:104E7000134D1A0B4B005B0DC90F0024AB4211DD23
:104E8000104CA34210DC8024640322430E4CE41A2D
:104E90001F2C0CDD0D48C31ADA4013005C420029B8
:104EA00000D11C00200030BD094BCC18FAE7E040CF
:104EB000084CA44663449A4013000343EEE7C046FF
:104EC000FE0300001D040000330400001304000072
:104ED000FFFFFF7FEDFBFFFF70B5002830D0C31749
:104EE000C4185C40C50F2000FEF7A0FB174B184A02
:104EF0001B1AD21A1F2A18DD164AD21A9440002211
:104F000024035B05240B5B0D0021100024030A0D14
:104F10001205240B1443104A1B0514401C43640063
:104F2000ED0764082C43210070BD210091400A0068
:104F30000B21081AC4405B052403240B5B0DE3E737
:104F40000025002300240022DEE7C0461E040000E6
:104F50003304000013040000FFFF0F8070B5051E2E
:104F600028D0FEF763FB154B154A1B1AD21A1F2ACD
:104F700016DD2C00134A0025D21A94405A0524034A
:104F8000240B520D002124030B0D240B1B0523437E
:104F90000D4C1205234013435B002800590870BDD7
:104FA0000B212C00081AC440954024035A05240BF9
:104FB000520DE7E700220024E4E7C0461E0400008B
:104FC0003304000013040000FFFF0F804200120EA4
:104FD000511C4302C9B270B55D0AC40F012915DD29
:104FE000E02189008C466D071B0B624400212800DC
:104FF0000D0D2D052B431C4D52052B40520813431C
:105000005B00E4075B082343190070BD002A15D13B
:10501000002D1FD02800FEF709FB0A281DDC0B23FA
:105020002A001B1ADA4013000200153295400F4A7D
:105030001B03121A52051B0B520DD7E7002D06D089
:1050400080221B0B120313436D07094ACEE7084A5F
:105050000023CBE700220023C8E703000B3B9D4061
:105060002B000025E3E7C046FFFF0F808903000007
:10507000FF0700000E4B70B500251E000D4CE41A12
:10508000A410A54204D0AB00F35898470135F8E7C7
:1050900000F02AFA084B00251E00084CE41AA41060
:1050A000A54204D0AB00F35898470135F8E770BD2E
:1050B000F4540000F4540000F454000008550000BB
:1050C000002310B59A4203D0CC5CC4540133F9E7F5
:1050D00010BD0200C9B21378002B03D0994204D04E
:1050E0000132F8E71800002900D1100070470023B2
:1050F000C25C0133002AFBD1581E7047000000003B
:1051000000000000890400007B0E00001F0B00005F
:10511000470D00007B0400000B0A00002D0A000070
:105120001D0A00007F0400000000000000000000D5
:1051300091040000491E000071040000C104000039
:105140009D040000B5040000A90400000D0F00003C
:105150000F0F00000000000000000000CD04000060
:10516000491E00007104000075040000150F0000C6
:10517000130F0000570500008506000041050000E0
:1051800027050000450F0000490F0000990F00009F
:10519000B90F0000850F0000890F0000890F000083
:1051A000000000000000000077040000D9040000A7
:1051B00059060000E70400007B0400000B0A000011
:1051C00079050000510A0000010500000D050000EE
:1051D000D1060000670500002E2E2E0069646C6564
:1051E0005374617274004F75743A200072756E00CA
:1051F00054657374004D61696E206D656E7500FFB6
:1052000000000000100002002500FFFF0000000069
:105210000000000077040000010A00001F0B0000DE
:10522000070A00007B0400000B0A00004572726F41
:10523000723A206D617844657074682072656163AC
:10524000686564210A0D696E637265617365206D1E
:1052500061784465707468206F6E20796F75722074
:1052600073636B657463682E0030313233343536C6
:105270003738392E0000FF012F022A032B042D0599
:105280002D062B073F093509363E005B003C005DCB
:10529000003A000D0A6E616E006F766600696E66F8
:1052A00000FFFFFF420000F840A0044001000000A2
:1052B000420000F844A0044002000000C00000F8D2
:1052C00000C0044001000000000000F80490044009
:1052D00002000000000000F80890044004000000F4
:1052E000C00000F81CC0044080000000C00000F8AE
:1052F00010C0044010000000C00000F808C00440C6
:1053000004000000C00000F80CC0044008000000C9
:10531000800000F80CB0044008000000800000F895
:1053200010B0044010000000800000F818B00440E5
:1053300040000000800000F81CB004408000000025
:10534000800000F814B0044020000000C00000F805
:1053500004C0044002000000800000F800B00440D7
:1053600001000000400000F800A00440010000001F
:10537000400000F804A0044002000000400000F8D3
:105380000CA0044008000000400000F808A0044001
:1053900004000000C00000F814C004402000000019
:1053A000C00000F818C0044040000000800000F871
:1053B00004B0044002000000800000F808B004407F
:1053C00004000000020100F850D00440100000006A
:1053D000020100F854D0044020000000030100F84E
:1053E00078D00440400000000000000000000000F1
:1053F000E12C0000D52C0000CD2C0000C52C0000B5
:10540000BD2C0000B52C0000AD2C0000A52C000028
:105410000015191500010000A4FDFF1F1200000077
:1054200000020000CEFDFF1F43000000000300004B
:1054300028FEFF1F0000000001030904B6FDFF1F46
:10544000000000000203090412FEFF1F000000001C
:10545000030309042CFEFF1F0000000000000000F1
:105460000000000000000000C03700001E370000F0
:105470001E3700001C370000B2370000B2370000B2
:10548000A83700001C370000B2370000A837000022
:10549000B23700001C370000B8370000B8370000F2
:1054A000B83700004238000080440000404300004C
:1054B000404300003E4300005844000058440000B0
:1054C0004A4400003E430000584400004A440000A3
:1054D000584400003E430000604400006044000067
:1054E0006044000060460000F8B5C046F8BC08BC47
:1054F0009E46704739040000D1080000A90E000044
:08550000C50E0000E50E0000DD
:04550800F8B5C046EC
:10550C0078FEFF1F8B0E000020000000D851000019
:10551C0002000000870E000006000000F0510000A1
:10552C00000001000852000074FEFF1F0000000084
:10553C00640000000A0000000100000030FFFF1FA3
:10554C00B4FEFF1F870E000003000000F5510000A1
:10555C0000000100020000005CFDFF1F695200000A
:10556C0044FFFF1F0000000028000A00F053000059
:10557C0000000000E803000000000000FFFFFFFF38
:10558C00010A04011201100102000040C01683043C
:10559C0073020102030118035400650065006E00DC
:1055AC00730079006400750069006E006F000902D9
:1055BC004300020100C03209040000010202010094
:1055CC000524001001052401010104240206052410
:1055DC000600010705820310004009040100020ABD
:1055EC00000000070503024000000705840240008C
:1055FC0000001603550053004200200053006500C4
:10560C007200690061006C00040309040C030000C3
:10561C00000000000000000000000000000000007E
:04562C00000000007A
:00000001FF
